:060000000A128A1110280B
:10000800FE00030E83160313AD000A08AE007F0836
:10001800AF000A128A11332C0A128A111328831688
:1000280003130A128A11FA270A128A11DE000A1229
:100038008A11FB270A128A11DF0083160317D301DE
:10004800D40183160313D701D801D901DA01DB01E2
:10005800DC01DD0183010A168A15572E8316031366
:100068004E088039831603179D001D08A2008316C9
:1000780003134E08831603179D001D079E001E08D4
:10008800A80083160313CD1F4A284B284E28831631
:10009800031728148316031728080319542855280A
:1000A8006728280A031D59285A286428003083160F
:1000B8000313CE000030CD000030CC000030CB0060
:1000C8000313CD177128003083160313CE000030B8
:1000D800CD000030CC000030CB00520880398316A8
:1000E80003179D001D08A2068316031352088316E2
:1000F80003179D001D079E001E08A7008316031303
:10010800D11F872888288B2883160317271483165E
:1001180003172708031991289228A428270A031DE2
:1001280096289728A128003083160313D2000030A0
:10013800D1000030D0000030CF000313D117AE2813
:10014800003083160313D2000030D1000030D000F5
:100158000030CF008316031727080319B428B528E1
:10016800BA282808031DB928BA28C52800308316DC
:100178000313CE000030CD000030CC000030CB009F
:10018800322C831603134B08831603179D001D0892
:1001980083160313B00051080A128A1195270A1210
:1001A8008A1183160313310883160317AE008316CA
:1001B8000313300883160317AD002D089D009E0118
:1001C8009F01A0012008A6001F08A5001E08A40082
:1001D8001D08A3002E089D009E019F01A001200874
:1001E800AC001F08AB001E08AA001D08A900831652
:1001F80003134C08831603179D001D088316031369
:10020800B00050080A128A1195270A128A1183161B
:100218000313310883160317AE008316031330083F
:1002280083160317AD002D089D009E019F01A001B4
:100238001D08A3071E0803110318013E03192529E9
:10024800A4071F0803110318013E03192C29A50749
:10025800200803110318013E03193329A6072E08A5
:100268009D009E019F01A0011D08A9071E080311FA
:100278000318013E03194129AA071F08031103188F
:10028800013E03194829AB07200803110318013E52
:1002980003194F29AC07831603134D088316031758
:1002A8009D001D0883160313B0004F080A128A1117
:1002B80095270A128A118316031331088316031728
:1002C800AE0083160313300883160317AD002D08FC
:1002D8009D009E019F01A0011D08A3071E08031190
:1002E8000318013E03197929A4071F0803110318ED
:1002F800013E03198029A507200803110318013EB0
:1003080003198729A6072E089D009E019F01A001B9
:100318001D08A9071E0803110318013E0319952992
:10032800AA071F0803110318013E03199C29AB07EC
:10033800200803110318013E0319A329AC0708304C
:100348009D000310A30DA40DA50DA60D9D0BA529B9
:10035800831603134C08831603179D001D08831684
:100368000313B0004F080A128A1195270A128A113E
:1003780083160313310883160317AE00831603137D
:10038800300883160317AD002D089D002E089E0027
:100398009F01A0011D08A3071E0803110318013EB1
:1003A8000319D729A4071F0803110318013E0319CD
:1003B800DE29A507200803110318013E0319E529C2
:1003C800A607831603134B08831603179D001D0801
:1003D80083160313B00050080A128A1195270A12CF
:1003E8008A1183160313310883160317AE00831688
:1003F8000313300883160317AD002D089D002E083F
:100408009E009F01A0011D08A3071E0803110318E1
:10041800013E0319102AA4071F0803110318013EFF
:100428000319172AA507200803110318013E031909
:100438001E2AA60708309D000310A30DA40DA50DC4
:10044800A60D9D0B202A831603134B08831603174A
:100458009D001D0883160313B0004F080A128A1165
:1004680095270A128A118316031331088316031776
:10047800AE0083160313300883160317AD002D084A
:100488009D002E089E009F01A0011D08A3071E08BD
:1004980003110318013E0319522AA4071F08031168
:1004A8000318013E0319592AA50720080311031848
:1004B800013E0319602AA607831603134C08831606
:1004C80003179D001D0883160313B00051080A1274
:1004D8008A1195270A128A11831603133108831685
:1004E8000317AE0083160313300883160317AD00F5
:1004F8002D089D002E089E009F01A0011D08A90738
:100508001E0803110318013E03198B2AAA071F08A6
:1005180003110318013E0319922AAB07200803119F
:100528000318013E0319992AAC07831603134D08D3
:10053800831603179D001D0883160313B000500887
:100548000A128A1195270A128A1183160313310891
:1005580083160317AE008316031330088316031798
:10056800AD002D089D002E089E009F01A0011D08CA
:10057800A9071E0803110318013E0319C42AAA0774
:100588001F0803110318013E0319CB2AAB072008E3
:1005980003110318013E0319D22AAC07831603136B
:1005A8004D08831603179D001D0883160313B0001A
:1005B80051080A128A1195270A128A118316031301
:1005C800310883160317AE00831603133008831609
:1005D8000317AD002D089D002E089E009F01A00165
:1005E800083003109D0D9E0D9F0DA00DFF3E031DAD
:1005F800F52A1D08A9071E0803110318013E03194F
:10060800062BAA071F0803110318013E03190D2B17
:10061800AB07200803110318013E0319142BAC077C
:1006280023089D0024089E0025089F002608A00096
:1006380018300310A00C9F0C9E0C9D0CFF3E031D50
:100648001D2B1D08A9071E0803110318013E0319D5
:100658002E2BAA071F0803110318013E0319352B77
:10066800AB07200803110318013E03193C2BAC0704
:1006780008309D000310A30DA40DA50DA60D9D0B1C
:100688003E2B280827079D009E019E0D1D08823ECF
:10069800AD001E080318013EFF3EAE00702B01306E
:1006A8009D000310A90DAA0DAB0DAC0D9D0B552B8C
:1006B800A61F5F2B602B612B291401309D000310AE
:1006C800A30DA40DA50DA60D9D0B632BFF30AD0743
:1006D8000318AE0AFF30AE07AB1F732B742B532BD6
:1006E800A701A61F782B792B952BFF3023059D009A
:1006F800FF3024059E00FF3025059F007F3026052A
:10070800A00020081F041E041D0403198C2B8D2B28
:10071800902BA701A70A952B291C932B942B952B7B
:100728008D2B27080319992B9A2BCB2B0130A9075E
:10073800003003180130AA07003003180130AB0756
:10074800003003180130AC072C1CAB2BAC2BCB2B87
:1007580029089D002A089E002B089F002C08A0004D
:100768000130A100200DA00C9F0C9E0C9D0CA10B2C
:10077800B62B2008AC001F08AB001E08AA001D08F5
:10078800A9000130AD070318AE0A0030AE072E08E5
:10079800803AFF0080307F02031DD42BFF302D02EA
:1007A800031CD72BD82BE32B7F3083160317AC0001
:1007B8008030AB000030AA000030A900182C831646
:1007C80003172E08803AFF0080307F02031DEE2BAE
:1007D80001302D020318F12BF22BFE2B003083166B
:1007E8000317AC000030AB000030AA000030A900AD
:1007F800A201182C831603172D089D001D08A800B8
:10080800FF30A905FF30AA057F30AB050030AC05E5
:10081800281C0F2C102C112CAB1728089D00031036
:100828001D0C9E001E08AC0022089D001D08AC048B
:100838002C0883160313CE00831603172B08831680
:100848000313CD00831603172A0883160313CC005D
:1008580083160317290883160313CB000800831295
:1008680003130C1F382C392C1D2D831603135E031C
:10087800031D3F2C402C1B2D831203131F0C8316C2
:100888000313AB002B0C0F39003A031D4C2C4D2CD5
:10089800A12C831203131E0883160313AB002B0825
:1008A800DA00A501FF30AB002B08A6000F30A70027
:1008B8000030A8004B30A9000030AA005A080A16D8
:1008C8008A15EB240A128A11831603132508AC0033
:1008D8002C08D9005908AB0002300310AB0CFF3EBE
:1008E800031D712C2B08831203139B00831603131B
:1008F80059080139AB00AB0E831203131D08831688
:1009080003132B06EF392B06831203139D0083165E
:1009180003135908AB0003102B0C0139AC00AC0EC3
:10092800AC0D831203131D08831603132C06DF393D
:100938002C06831203139D001B2D831203131F0C17
:1009480083160313AB002B0C0F39013A031DAD2C92
:10095800AE2CEF2C831203131E0883160313AB006F
:100968002B08DB00A501FF30AB002B08A6000F30D9
:10097800A7000030A8004B30A9000030AA005B088F
:100988000A168A15EB240A128A11831603132608FD
:10099800D8002508D7005808AC005708AB0003104A
:1009A800AC0CAB0C0310AC0CAB0C2B088312031370
:1009B80095008316031357080339AB00AB0E831257
:1009C80003131708831603132B06CF392B0683123C
:1009D800031397001B2D831203131F0C8316031395
:1009E800AB002B0C0F39023A031DFB2CFC2C052DF8
:1009F800831203131E0883160313AB002B08DC00B5
:100A08001B2D831203131F0C83160313AB002B0C2F
:100A18000F39033A031D112D122D1B2D83120313B9
:100A28001E0883160313AB002B08DD001B2D831251
:100A38000C138C1E202D212D592E1A0883160313F2
:100A4800AB002B08DF0005305F0203182C2D2D2D7D
:100A5800592E04305F06031D322D332D3F2D0130F2
:100A6800AB002B08DE0704305E06031D3C2D3D2D30
:100A78003F2DDE01DE0A5E03031D432D442D892D23
:100A880003305F06031D492D4A2D542D5A08AB002B
:100A98002B08F00001300A128A11E5270A128A1180
:100AA8000230831603135F06031D5B2D5C2D662D34
:100AB8005B08AB002B08F00002300A128A11E52708
:100AC8000A128A11831603135F03031D6C2D6D2D03
:100AD800772D5C08AB002B08F00003300A128A114E
:100AE800E5270A128A11831603135F08031D7D2D5B
:100AF8007E2D592E5D08AB002B08F00004300A1239
:100B08008A11E5270A128A11592E02305E06031D42
:100B18008E2D8F2D592E03305F06031D942D952D94
:100B2800EB2D01300A128A1506200A128A11831643
:100B38000313AB002B08DA00A501FF30AB002B082C
:100B4800A6000F30A7000030A8004B30A9000030E5
:100B5800AA005A080A168A15EB240A128A11831663
:100B680003132508AC002C08D9005908AB00023043
:100B78000310AB0CFF3E031DBC2D2B08831203137F
:100B88009B008316031359080139AB00AB0E83127F
:100B980003131D08831603132B06EF392B06831244
:100BA80003139D00831603135908AB0003102B0C85
:100BB8000139AC00AC0EAC0D831203131D0883166B
:100BC80003132C06DF392C06831203139D00023011
:100BD800831603135F06031DF22DF32D362E023004
:100BE8000A128A1506200A128A1183160313AB000B
:100BF8002B08DB00A501FF30AB002B08A6000F3047
:100C0800A7000030A8004B30A9000030AA005B08FC
:100C18000A168A15EB240A128A118316031326086A
:100C2800D8002508D7005808AC005708AB000310B7
:100C3800AC0CAB0C0310AC0CAB0C2B0883120313DD
:100C480095008316031357080339AB00AB0E8312C4
:100C580003131708831603132B06CF392B068312A9
:100C680003139700831603135F03031D3C2E3D2EC9
:100C7800482E03300A128A1506200A128A11831692
:100C88000313AB002B08DC005F08031D4C2E4D2E10
:100C9800592E04300A128A1506200A128A11831660
:100CA8000313AB002B08DD00592E0B1C5C2E5D2EA8
:100CB8008A2F831203130618622E632E712E0130B9
:100CC80083160313AB002B08DE0704305E06031DF2
:100CD8006E2E6F2E712EDE01DE0A831603135E035D
:100CE800031D772E782EC12E8312031386187D2EAE
:100CF8007E2E8A2E831603135A08AB002B08F000A9
:100D080001300A128A11E5270A128A118312031385
:100D180006198F2E902E9C2E831603135B08AB00AA
:100D28002B08F00002300A128A11E5270A128A11EC
:100D3800831203138619A12EA22EAE2E8316031337
:100D48005C08AB002B08F00003300A128A11E52773
:100D58000A128A1183120313061AB32EB42E892F8E
:100D6800831603135D08AB002B08F00004300A1249
:100D78008A11E5270A128A11892F02305E06031D9F
:100D8800C62EC72E892F831203138618CC2ECD2E7C
:100D9800232F01300A128A1506200A128A11831697
:100DA8000313AB002B08DA00A501FF30AB002B08BA
:100DB800A6000F30A7000030A8004B30A900003073
:100DC800AA005A080A168A15EB240A128A118316F1
:100DD80003132508AC002C08D9005908AB000230D1
:100DE8000310AB0CFF3E031DF42E2B0883120313D4
:100DF8009B008316031359080139AB00AB0E83120D
:100E080003131D08831603132B06EF392B068312D1
:100E180003139D00831603135908AB0003102B0C12
:100E28000139AC00AC0EAC0D831203131D088316F8
:100E380003132C06DF392C06831203139D000619B1
:100E4800262F272F6A2F02300A128A1506200A1227
:100E58008A1183160313AB002B08DB00A501FF30B2
:100E6800AB002B08A6000F30A7000030A8004B30BD
:100E7800A9000030AA005B080A168A15EB240A129A
:100E88008A11831603132608D8002508D7005808A6
:100E9800AC005708AB000310AC0CAB0C0310AC0C47
:100EA800AB0C2B0883120313950083160313570802
:100EB8000339AB00AB0E8312031317088316031311
:100EC8002B06CF392B0683120313970086196D2F33
:100ED8006E2F792F03300A128A1506200A128A11FA
:100EE80083160313AB002B08DC008312061A7D2F30
:100EF8007E2F892F04300A128A1506200A128A11B9
:100F080083160313AB002B08DD000B1083160313A5
:100F18002F08FF002E088A002D0E8300FE0E7E0E7D
:100F2800090083160313B800B401B5013008B200F4
:100F3800B3013208B6003308B700381CA42FA52F18
:100F4800AB2F3608B4070318B50A3708B5070130C0
:100F58000310B60DB70DFF3E031DAC2F0310B80CE0
:100F68003808031DB82FB92FA12F3508B100340850
:100F7800B0000800F800F401F5017008F200F30170
:100F88007208F6007308F700781CCB2FCC2FD22FED
:100F98007608F4070318F50A7708F50701300310F7
:100FA800F60DF70DFF3E031DD32F0310F80C78083C
:100FB800031DDF2FE02FC82F7508F1007408F0001B
:100FC8000800F1007108831203178D0070088C0067
:100FD800831603178C130C158B1355308D00AA300C
:100FE8008D008C140C110B108B1708000134013480
:10100C00F0007008831203178D00831603178C13DE
:10101C000C14831203170C08080003108316031713
:10102C00410D420DC3004308C9004908031D1F2888
:10103C00202829280030C2000030C1000030C00038
:10104C000030BF008E283F08C3004008C400410890
:10105C00C5004208C6001F300310C60CC50CC40CDA
:10106C00C30CFF3E031D32284308C7004708C800C5
:10107C00C117FF30BF05FF30C005FF30C105003080
:10108C00C2059630C902C91F4C284D28672849084B
:10109C00803A973E031853285428552820280130AD
:1010AC000310C20CC10CC00CBF0CFF3E031D562814
:1010BC000130C3004308C907031D6528662855285D
:1010CC007E2820304902031C6C286D2879282028A2
:1010DC000130C3000310BF0DC00DC10DC20DC30BF9
:1010EC0070280130C9024908031D7D287E286E280E
:1010FC0048080319822883288E28BF09C009C10912
:10110C00C209BF0A0319C00A0319C10A0319C20A8A
:10111C00080083160317D0004C0883160313B00085
:10112C00831603174D0883160313B100B201B301E4
:10113C0000300A168A113F200A128A1583160313EF
:10114C00330883160317B60083160313320883166D
:10115C000317B50083160313310883160317B40065
:10116C0083160313300883160317B3004C084E0282
:10117C0083160313B000831603174D08031C4D0A86
:10118C004F0283160313B100B201B30100300A16EB
:10119C008A113F200A128A15831603133308C500DF
:1011AC003208C4003108C3003008C200831603178C
:1011BC004A084B0283160313B000B101031CB103A0
:1011CC00B201B11BB2033208B30001300A168A1106
:1011DC003F200A128A15831603133308C100320804
:1011EC00C0003108BF003008BE000A168A11602505
:1011FC000A128A15831603134108D2004008D10045
:10120C003F08D0003E08CF00831603174A0850024F
:10121C0083160313B000B101031CB103B201B11B5F
:10122C00B2033208B30001300A168A113F200A12A9
:10123C008A15831603133308CE003208CD0031080B
:10124C00CC003008CB000A128A1132200A128A15FF
:10125C00831603134E0883160317B2008316031369
:10126C004D0883160317B100831603134C0883161D
:10127C000317B000831603134B0883160317AF0034
:10128C000A128A1561210A128A158316031732086D
:10129C00C2003108C1003008C0002F08BF000A127C
:1012AC008A1513200A128A15831603174008CB00DF
:1012BC003F08CA0008008316031732088039B700AC
:1012CC00370883160313D300831603173208B700AD
:1012DC003707B800380883160313D5008316031795
:1012EC00B11F79297A297D29831603135514031309
:1012FC0055080319822983299729550A031D872923
:10130C0088299229003083160317B2000030B100EF
:10131C000030B0000030AF0083160317B117B201D4
:10132C00A129003083160317B2000030B100003041
:10133C00B0000030AF0036088039B700370883168C
:10134C000313D400540853060319AD29AE29AF2951
:10135C005317831603173608B7003707B800380839
:10136C0083160313D40083160317B51FBE29BF2998
:10137C00C229831603135414031354080319C729E1
:10138C00C829DC29540A031DCC29CD29D7290030C2
:10139C0083160317B6000030B5000030B4000030DF
:1013AC00B30083160317B517B601E6290030831670
:1013BC000317B6000030B5000030B4000030B300A5
:1013CC0083160313550854020318ED29EE29642AD9
:1013DC00531FF129F229FA29803083160317B7001D
:1013EC00370883160313D306550883160317B70063
:1013FC00370883160313D600540883160317B70057
:10140C00370883160313D500560883160317B70045
:10141C00370883160313D400831603172F08B7005D
:10142C00370883160313D600831603173308B70047
:10143C003708AF0083160313560883160317B7003B
:10144C003708B3003008B700370883160313D600EB
:10145C00831603173408B7003708B000831603133C
:10146C00560883160317B7003708B4003108B700C5
:10147C00370883160313D600831603173508B700F5
:10148C003708B10083160313560883160317B700E9
:10149C003708B5003208B700370883160313D60097
:1014AC00831603173608B7003708B20083160313E8
:1014BC00560883160317B7003708B6000313D60176
:1014CC00540883160317B700B8013808BA008316FE
:1014DC0003135508831603173702B900031CBA030C
:1014EC003A08803AFF0080307F02031D7F2A1A30B1
:1014FC003902031C822A832AD62A83160317320840
:10150C00310430042F04031D8C2A8E2A01308F2ABB
:10151C000030B700370883160313D600003083164B
:10152C000317B2000030B1000030B0000030AF0043
:10153C0083160313540883160317B7003708831652
:10154C000313D500DE2A561CAC2AAD2ABA2A56083B
:10155C0083160317B7000310370C0138B80038088E
:10156C0083160313D600BC2A0310D60C831603175C
:10157C002F1CC12AC22AC52A83160313D617013081
:10158C0083160317B700320DB20CB10CB00CAF0CB4
:10159C00B70BC92A0130B700370883160313D507D8
:1015AC008316031354085502031CDD2ADE2AA92ACC
:1015BC00531BE12AE22A3F2B5508031DE62AE72A92
:1015CC00F22A003083160317B2000030B10000304D
:1015DC00B0000030AF009E2C831603173308AF0702
:1015EC00340803110318013E0319FD2AB00735080E
:1015FC0003110318013E0319042BB107360803111C
:10160C000318013E03190B2BB207321C0E2B0F2BA8
:10161C00062C83160313561C142B152B222B560841
:10162C0083160317B7000310370C0138B8003808BD
:10163C0083160313D600242B0310D60C8316031722
:10164C002F1C292B2A2B2D2B83160313D617013075
:10165C0083160317B700320DB20CB10CB00CAF0CE3
:10166C00B70B312B0130B700370883160313D5079E
:10167C00062C831603173208803AFF003608803A8E
:10168C007F02031D532B35083102031D532B3408E5
:10169C003002031D532B33082F020318562B572BE4
:1016AC00B32BFF30B700FF30B800FF30B900FF306C
:1016BC00BA003308BB003408BC003508BD0036083E
:1016CC00BE002F08BB023008031C300F6E2B6F2B93
:1016DC00BC023108031C310F742B752BBD02320870
:1016EC00031C320F7A2B7B2BBE023B08B7073C083E
:1016FC0003183C0F822B832BB8073D0803183D0FB2
:10170C00882B892BB9073E0803183E0ABA073A08FA
:10171C00B2003908B1003808B0003708AF0080308B
:10172C00B700370883160313D306D609D60A560812
:10173C00031DA12BA22BC12B013083160317AF075E
:10174C00003003180130B007003003180130B10726
:10175C00003003180130B207C12B3308AF02340834
:10176C00031C340FB0023508031C350FB1023608C8
:10177C00031C360FB20283160317320831043004EF
:10178C002F04031DCA2BCB2B002C831603135608D6
:10179C00031DD12BD22B002C003083160317B20063
:1017AC000030B1000030B0000030AF009E2C013092
:1017BC00B7000310AF0DB00DB10DB20DB70BDF2B91
:1017CC0083160313D61FEB2BEC2BEF2B831603176F
:1017DC002F140313561CF32BF42BF72B0314D60DD9
:1017EC00F92B0310D60D55080319FD2BFE2B002CDD
:1017FC000130D50283160317B11F052C062CDD2BE7
:10180C000313D401D61F0B2C0C2C1D2C56087F391E
:10181C000319112C122C162C0313D401D40A1D2CD1
:10182C00831603172F1C1B2C1C2C1D2C122C031382
:10183C0054080319222C232C5F2C01308316031718
:10184C00AF07003003180130B00700300318013027
:10185C00B107003003180130B207321C362C372C7C
:10186C005F2C2F08B7003008B8003108B9003208D7
:10187C00BA000130BB003A0DBA0CB90CB80CB70C5D
:10188C00BB0B412C3A08B2003908B1003808B00043
:10189C003708AF0083160313550A0319562C572C1F
:1018AC005F2C013083160317B70037088316031318
:1018BC00D5070313550A0319642C652C6A2C55089B
:1018CC00031D692C6A2C7C2C003083160317B20084
:1018DC000030B1000030B0000030AF0083160313AD
:1018EC005508031D7A2C7B2C7C2CD301551C7F2C8A
:1018FC00802C842C83160317B1178A2C7F30831607
:10190C000317B7003708B105831603135508831660
:10191C000317B7000310370CB8003808B200831651
:10192C000313D31F9A2C9B2C9E2C83160317B217D0
:10193C000800831203133D088039C2004208C70017
:10194C003D08C2004207C3004308CD00BC1FAF2CAA
:10195C00B02CB12C4D144D080319B52CB62CC52C3C
:10196C004D0A031DBA2CBB2CC32C0030BD0000301B
:10197C00BC000030BB000030BA00BC17CD2C0030CE
:10198C00BD000030BC000030BB000030BA00410884
:10199C008039C2004208C7064108C2004207C30092
:1019AC004308CC00C01FDB2CDC2CDD2C4C144C0869
:1019BC000319E12CE22CF12C4C0A031DE62CE72C2C
:1019CC00EF2C0030C1000030C0000030BF000030F0
:1019DC00BE00C017F92C0030C1000030C000003030
:1019EC00BF000030BE004C080319FD2CFE2C032D4B
:1019FC004D08031D022D032D0C2D0030BD000030B1
:101A0C00BC000030BB000030BA00FF2F3A08C20007
:101A1C004208F00040080A128A11BE270A128A15E1
:101A2C00710883120313D3007008D2005208C2004D
:101A3C00C301C401C5014508CB004408CA004308D2
:101A4C00C9004208C8005308C200C301C401C50143
:101A5C004508D1004408D0004308CF004208CE000E
:101A6C003B08C2004208F0003F080A128A11BE2748
:101A7C000A128A15710883120313D3007008D2005E
:101A8C005208C200C301C401C5014208C80743087B
:101A9C0003110318013E0319542DC90744080311FF
:101AAC000318013E03195B2DCA07450803110318DF
:101ABC00013E0319622DCB075308C200C301C401B8
:101ACC00C5014208CE07430803110318013E031950
:101ADC00702DCF07440803110318013E0319772D0D
:101AEC00D007450803110318013E03197E2DD107B9
:101AFC003C08C2004208F0003E080A128A11BE27B8
:101B0C000A128A15710883120313D3007008D200CD
:101B1C005208C200C301C401C5014208C8074308EA
:101B2C0003110318013E03199C2DC9074408031126
:101B3C000318013E0319A32DCA0745080311031806
:101B4C00013E0319AA2DCB075308C200C301C401DF
:101B5C00C5014208CE07430803110318013E0319BF
:101B6C00B82DCF07440803110318013E0319BF2DEC
:101B7C00D007450803110318013E0319C62DD107E0
:101B8C000830C2000310C80DC90DCA0DCB0DC20B15
:101B9C00C82D3B08C2004208F0003E080A128A1108
:101BAC00BE270A128A15710883120313D30070081A
:101BBC00D2005208C2005308C300C401C501420838
:101BCC00C807430803110318013E0319EE2DC9077A
:101BDC00440803110318013E0319F52DCA074508E3
:101BEC0003110318013E0319FC2DCB073A08C20060
:101BFC004208F0003F080A128A11BE270A128A1501
:101C0C00710883120313D3007008D2005208C2006B
:101C1C005308C300C401C5014208C8074308031197
:101C2C000318013E03191B2EC9074408031103189E
:101C3C00013E0319222ECA07450803110318013E61
:101C4C000319292ECB070830C2000310C80DC90D8B
:101C5C00CA0DCB0DC20B2B2E3A08C2004208F00065
:101C6C003E080A128A11BE270A128A1571088312BD
:101C7C000313D3007008D2005208C2005308C300EB
:101C8C00C401C5014208C807430803110318013EEB
:101C9C000319512EC907440803110318013E0319F7
:101CAC00582ECA07450803110318013E03195F2E6D
:101CBC00CB073B08C2004208F00040080A128A1108
:101CCC00BE270A128A15710883120313D3007008F9
:101CDC00D2005208C2005308C300C401C501420817
:101CEC00CE07430803110318013E03197E2ECF07BC
:101CFC00440803110318013E0319852ED00745082B
:101D0C0003110318013E03198C2ED1073C08C200A5
:101D1C004208F0003F080A128A11BE270A128A15DF
:101D2C00710883120313D3007008D2005208C2004A
:101D3C005308C300C401C5014208CE074308031170
:101D4C000318013E0319AB2ECF07440803110318E7
:101D5C00013E0319B22ED007450803110318013EAA
:101D6C000319B92ED1073C08C2004208F000400804
:101D7C000A128A11BE270A128A15710883120313DC
:101D8C00D3007008D2005208C2005308C300C4012B
:101D9C00C50108300310C20DC30DC40DC50DFF3EA7
:101DAC00031DD02E4208CE07430803110318013E31
:101DBC000319E12ECF07440803110318013E031940
:101DCC00E82ED007450803110318013E0319EF2E26
:101DDC00D1074808C2004908C3004A08C4004B0890
:101DEC00C50018300310C50CC40CC30CC20CFF3E4C
:101DFC00031DF82E4208CE07430803110318013EB9
:101E0C000319092FCF07440803110318013E0319C6
:101E1C00102FD007450803110318013E0319172F83
:101E2C00D1070830C2000310C80DC90DCA0DCB0D67
:101E3C00C20B192F4D084C07C200C301C30D420839
:101E4C00823ED20043080318013EFF3ED3004B2FC5
:101E5C000130C2000310CE0DCF0DD00DD10DC20B31
:101E6C00302FCB1F3A2F3B2F3C2F4E140130C2008A
:101E7C000310C80DC90DCA0DCB0DC20B3E2FFF3080
:101E8C00D2070318D30AFF30D307D01F4E2F4F2F82
:101E9C002E2FCC01CB1F532F542F702FFF30480502
:101EAC00C200FF304905C300FF304A05C4007F3033
:101EBC004B05C50045084404430442040319672F2D
:101ECC00682F6B2FCC01CC0A702F4E1C6E2F6F2FEE
:101EDC00702F682F4C080319742F752FA62F013003
:101EEC00CE07003003180130CF0700300318013043
:101EFC00D007003003180130D107511C862F872FD3
:101F0C00A62F4E08C2004F08C3005008C400510849
:101F1C00C5000130C600450DC50CC40CC30CC20C69
:101F2C00C60B912F4508D1004408D0004308CF00C0
:101F3C004208CE000130D2070318D30A0030D30771
:101F4C005308803AFF0080307F02031DAF2FFF3013
:101F5C005202031CB22FB32FBE2F7F3083120313F8
:101F6C00D1008030D0000030CF000030CE00F32FF5
:101F7C00831203135308803AFF0080307F02031D45
:101F8C00C92F013052020318CC2FCD2FD92F00307E
:101F9C0083120313D1000030D0000030CF0000308A
:101FAC00CE00C701F32F831203135208C20042085C
:101FBC00CD00FF30CE05FF30CF057F30D00500308F
:101FCC00D1054D1CEA2FEB2FEC2FD0174D08C2007A
:101FDC000310420CC3004308D1004708C20042085A
:101FEC00D1045108BD005008BC004F08BB004E087E
:041FFC00BA0008001F
:10207E0083160313B80038080319462847285B282F
:10208E00B31F4A284B285B283009BA003109BB0020
:10209E003209BC003309BD00BA0A0319BB0A031981
:1020AE00BC0A0319BD0A63283308BD003208BC0000
:1020BE003108BB003008BA00330832043104300452
:1020CE00031D6A286B2874280030B3000030B2005C
:1020DE000030B1000030B000FA289630B400340859
:1020EE00B90086280130B4003408B9070130031056
:1020FE00BD0CBC0CBB0CBA0CFF3E031D7E28FE3083
:10210E003D05031D8B288C287928A8280130B400A2
:10211E003408B9070130BA07003003180130BB0785
:10212E00003003180130BC07003003180130BD0722
:10213E0001300310BD0CBC0CBB0CBA0CFF3E031DD2
:10214E00A028FF303D05031DAD28AE288D28BA28E6
:10215E000130B9020130B4000310BA0DBB0DBC0D35
:10216E00BD0DB40BB328BC1BBD28BE28C42802303D
:10217E0039020318C328C428AF283918C728C8281D
:10218E00D028FF30BA05FF30BB057F30BC05FF30CD
:10219E00BD050310B90C3908B400B501B601B7017D
:1021AE0018300310B40DB50DB60DB70DFF3E031D5F
:1021BE00D8283408BA043508BB043608BC043708DE
:1021CE00BD0438080319EC28ED28F228B31FF028B7
:1021DE00F128F228BD173D08B3003C08B2003B08B9
:1021EE00B1003A08B00008008312031327088039A3
:1021FE00A8002808B1002708A8002807A900290868
:10220E00B800A61F0B290C290D29381438080319FC
:10221E00112912292229380A031D162917291F29C7
:10222E000030A7000030A6000030A5000030A4004A
:10223E00A617A7012A290030A7000030A6000030FB
:10224E00A5000030A40023088039A8002808B10694
:10225E002308A8002807A9002908B900A21F3829B9
:10226E0039293A293914390803193E293F294F29AA
:10227E00390A031D432944294C290030A30000309C
:10228E00A2000030A1000030A000A217A301572920
:10229E000030A3000030A2000030A1000030A000EA
:1022AE002308220421042004031D5E295F297829B6
:1022BE000030A7000030A6000030A5000030A400BA
:1022CE008030A6047F30A7043108A8002808A70490
:1022DE002708A3002608A2002508A1002408A000B4
:1022EE00D72A3808031D7C297D2986290030A300B2
:1022FE000030A2000030A1000030A000D72A38081C
:10230E00A800A9012908AB0039082802AA00031C5D
:10231E00AB032A087F3EB2002B080318013E003E95
:10232E00B3002708B0002608AF002508AE00240829
:10233E00AD000030A7000030A6000030A500003030
:10234E00A4000030B7000030B6000030B5000030F9
:10235E00B400B901FC2939080319B629B729D729C0
:10236E000130A8000310AD0DAE0DAF0DB00DA80BD2
:10237E00B9290130A8000310A40DA50DA60DA70DB7
:10238E00A80BC229B71FCC29CD29CE292414013080
:10239E00A8000310B40DB50DB60DB70DA80BD029BE
:1023AE0023083002031DE52922082F02031DE5290B
:1023BE0021082E02031DE52920082D02031CE82901
:1023CE00E929F82937172008AD022108031C210F2F
:1023DE00AE022208031C220FAF022308031C230F98
:1023EE00B0020130A8002808B9071A303902031CC0
:1023FE00012A022AB22930082F042E042D040319B3
:10240E00092A0A2A292A3414292A0130A80003107D
:10241E00A40DA50DA60DA70DA80B0E2AB71F182AE1
:10242E00192A1A2A24140130A8000310B40DB50D70
:10243E00B60DB70DA80B1C2AFF30B2070318B30A4E
:10244E00FF30B307A61F2C2A2D2A0C2AB901B71F5D
:10245E00312A322A4E2AFF303405A800FF303505C6
:10246E00A900FF303605AA007F303705AB002B08D8
:10247E002A04290428040319452A462A492AB9019F
:10248E00B90A4E2A241C4C2A4D2A4E2A462A3908AD
:10249E000319522A532A842A0130A4070030031844
:1024AE000130A507003003180130A60700300318CD
:1024BE000130A707271C642A652A842A2408A8004D
:1024CE002508A9002608AA002708AB000130AC0099
:1024DE002B0DAB0CAA0CA90CA80CAC0B6F2A2B085D
:1024EE00A7002A08A6002908A5002808A400013084
:1024FE00B2070318B30A0030B3073308803AFF005F
:10250E0080307F02031D8D2AFF303202031C902A79
:10251E00912A9F2AFF3083120313B2000030B300BA
:10252E000030A7000030A6000030A5000030A40047
:10253E00831203133308803AFF0080307F02031D9D
:10254E00AA2A013032020318AD2AAE2ABB2A831200
:10255E000313B201B3010030A7000030A600003013
:10256E00A5000030A400B101831203133208A800A5
:10257E002808B800381CC42AC52AC72AA617CB2A91
:10258E007F30A8002808A6053808A8000310280CDC
:10259E00A9002908A7003108A8002808A7046F2958
:1025AE0008008312031357088039DC005C08E4002E
:1025BE005708DC005C07DD005D08E600D61FE82A40
:1025CE00E92AEA2A661466080319EE2AEF2AFF2A78
:1025DE00660A031DF32AF42AFC2A0030D7000030C5
:1025EE00D6000030D5000030D400D617D701072B07
:1025FE000030D7000030D6000030D5000030D400B7
:10260E005B088039DC005C08E50065086406031988
:10261E00112B122B132B64175B08DC005C07DD00FB
:10262E005D08E500DA1F1C2B1D2B1E2B651465089B
:10263E000319222B232B332B650A031D272B282B43
:10264E00302B0030DB000030DA000030D9000030D3
:10265E00D800DA17DB013B2B0030DB000030DA004C
:10266E000030D9000030D800660865020318402BF0
:10267E00412B852B641F442B452B492B8030DC00CE
:10268E005C08E4066608DC005C08E7006508DC0010
:10269E005C08E6006708DC005C08E5005408DC0016
:1026AE005C08E7005808DC005C08D4006708DC0012
:1026BE005C08D8005508DC005C08E7005908DC000F
:1026CE005C08D5006708DC005C08D9005608DC0001
:1026DE005C08E7005A08DC005C08D6006708DC00DE
:1026EE005C08DA005708DC005C08E7005B08DC00D9
:1026FE005C08D7006708DC005C08DB00E7016508B2
:10270E00DC00DD015D08DF0066085C02DE00031CF4
:10271E00DF035F08803AFF0080307F02031D992B94
:10272E001A305E02031C9C2B9D2BDA2B8312031393
:10273E005708560455045404031DA62BA82B01302C
:10274E00A92B0030DC005C08E7000030D700003019
:10275E00D6000030D5000030D4006508DC005C08DF
:10276E00E600E22B671CBC2BBD2BC62B6708DC00DA
:10277E0003105C0C0138DD005D08E700C82B031068
:10278E00E70C541CCB2BCC2BCD2BE7170130DC00E8
:10279E00570DD70CD60CD50CD40CDC0BCF2B01302F
:1027AE00DC005C08E6078312031365086602031C4F
:1027BE00E12BE22BB92B641BE52BE62B312C6608A3
:1027CE00031DEA2BEB2BF42B0030D7000030D60084
:1027DE000030D5000030D4005F2D5808D4075908BA
:1027EE0003110318013E0319FD2BD5075A080311D7
:1027FE000318013E0319042CD6075B0803110318B6
:10280E00013E03190B2CD707571C0E2C0F2CE52C51
:10281E00671C122C132C1C2C6708DC0003105C0C9C
:10282E000138DD005D08E7001E2C0310E70C541C78
:10283E00212C222C232CE7170130DC00570DD70C4E
:10284E00D60CD50CD40CDC0B252C0130DC005C082E
:10285E00E607E52C5708803AFF005B08803A7F02B6
:10286E00031D432C5A085602031D432C59085502CA
:10287E00031D432C580854020318462C472C9F2C3A
:10288E00FF30DC00FF30DD00FF30DE00FF30DF0008
:10289E005808E0005908E1005A08E2005B08E3001E
:1028AE005408E0025508031C550F5E2C5F2CE10204
:1028BE005608031C560F642C652CE2025708031CA5
:1028CE00570F6A2C6B2CE3026008DC0761080318B3
:1028DE00610F722C732CDD0762080318620F782CBF
:1028EE00792CDE0763080318630ADF075F08D70039
:1028FE005E08D6005D08D5005C08D4008030DC0090
:10290E005C08E406E709E70A6708031D8F2C902C84
:10291E00AD2C0130D407003003180130D50700303C
:10292E0003180130D607003003180130D707AD2C3D
:10293E005808D4025908031C590FD5025A08031C13
:10294E005A0FD6025B08031C5B0FD70257085604BA
:10295E0055045404031DB42CB52CE12C6708031D3B
:10296E00B92CBA2CE12C0030D7000030D600003044
:10297E00D5000030D4005F2D0130DC000310D40DE3
:10298E00D50DD60DD70DDC0BC52CE71FCF2CD02CBB
:10299E00D12C5414671CD42CD52CD82C0314E70D31
:1029AE00DA2C0310E70D66080319DE2CDF2CE12C60
:1029BE000130E602D61FE42CE52CC32CE501E71FFF
:1029CE00E92CEA2CF82C67087F390319EF2CF02C30
:1029DE00F32CE501E50AF82C541CF62CF72CF82CF8
:1029EE00F02C65080319FC2CFD2C312D0130D40779
:1029FE00003003180130D507003003180130D60718
:102A0E00003003180130D707571C0E2D0F2D312D16
:102A1E005408DC005508DD005608DE005708DF00BC
:102A2E000130E0005F0DDF0CDE0CDD0CDC0CE00B8A
:102A3E00192D5F08D7005E08D6005D08D5005C082A
:102A4E00D400660A03192C2D2D2D312D0130DC00FA
:102A5E005C08E607660A0319352D362D3B2D6608F0
:102A6E00031D3A2D3B2D492D0030D7000030D600E6
:102A7E000030D5000030D4006608031D472D482DC8
:102A8E00492DE401661C4C2D4D2D4F2DD617532D7F
:102A9E007F30DC005C08D6056608DC0003105C0C99
:102AAE00DD005D08D700E41F5D2D5E2D5F2DD7176D
:102ABE0008008316031345088039C600460883169E
:102ACE0003179400831603134508C6004607C70074
:102ADE004708831603179B0083160313C41F782D14
:102AEE00792D7C2D831603171B14831603171B08D1
:102AFE000319822D832D962D1B0A031D872D882DDC
:102B0E00922D003083160313C5000030C400003030
:102B1E00C3000030C2000313C417C501A02D00303E
:102B2E0083160313C5000030C4000030C30000300C
:102B3E00C20041088039C600460883160317940662
:102B4E00831603134108C6004607C70047088316BD
:102B5E0003179C0083160313C01FB62DB72DBA2D75
:102B6E00831603171C14831603171C080319C02D94
:102B7E00C12DD42D1C0A031DC52DC62DD02D003000
:102B8E0083160313C1000030C0000030BF000030B8
:102B9E00BE000313C017C101DE2D003083160313D0
:102BAE00C1000030C0000030BF000030BE00410840
:102BBE0040043F043E04031DE52DE62D032E003098
:102BCE00C5000030C4000030C3000030C2008030A9
:102BDE00C4047F30C5048316031714088316031329
:102BEE00C6004608C5044508C1004408C000430895
:102BFE00BF004208BE00FF2F831603171B08031DDC
:102C0E00092E0A2E152E003083160313C100003034
:102C1E00C0000030BF000030BE00FF2F1B0883161F
:102C2E000313C600C7014708C900831603171C0803
:102C3E00831603134602C800031CC90348087F3ECF
:102C4E008316031795008316031349080318013ED4
:102C5E00003E83160317960083160313450883164A
:102C6E000317930083160313440883160317920069
:102C7E008316031343088316031791008316031359
:102C8E004208831603179000003083160313C50005
:102C9E000030C4000030C3000030C2000030831684
:102CAE0003179A000030990000309800003097000A
:102CBE009C01E72E1C080319652E662E952E0130F9
:102CCE0083160313C600031083160317900D910D80
:102CDE00920D930D83160313C60B6A2E0130C60098
:102CEE000310C20DC30DC40DC50DC60B772E831672
:102CFE0003179A1F832E842E872E831603134214D6
:102D0E0001300313C600031083160317970D980D99
:102D1E00990D9A0D83160313C60B8A2E03134108C1
:102D2E00831603171302031DB22E831603134008D6
:102D3E00831603171202031DB22E831603133F08C8
:102D4E00831603171102031DB22E831603133E08BA
:102D5E00831603171002031CB52EB62EDF2E1A177C
:102D6E00831603133E08831603179002831603136C
:102D7E003F08031C3F0FC42EC72E83160317910264
:102D8E00831603134008031C400FCE2ED12E83163C
:102D9E0003179202831603134108031C410FD82E0A
:102DAE00DB2E831603179302831603138316031762
:102DBE00013083160313C6004608831603179C07BB
:102DCE001A301C02031CEC2EED2E612E1308120479
:102DDE00110410040319F42EF52E1F2F17141F2F94
:102DEE000130C6000310C20DC30DC40DC50DC60BB8
:102DFE00F92E831603179A1F052F062F092F8316F8
:102E0E000313421401300313C60003108316031775
:102E1E00970D980D990D9A0D83160313C60B0C2F53
:102E2E00FF308316031795070318960AFF3096078F
:102E3E0083160313C41F242F252FF72E8316031773
:102E4E009C019A1F2B2F2C2F582FFF3017058316FE
:102E5E000313C600FF3083160317180583160313DA
:102E6E00C700FF3083160317190583160313C80016
:102E7E007F30831603171A0583160313C9004908FA
:102E8E0048044704460403194D2F4E2F532F831623
:102E9E0003179C019C0A582F421C562F572F582F50
:102EAE004E2F831603171C0803195E2F5F2F942FC6
:102EBE00013083160313C207003003180130C30715
:102ECE00003003180130C407003003180130C50765
:102EDE00451C722F732F942F4208C6004308C7005B
:102EEE004408C8004508C9000130CA00490DC90C84
:102EFE00C80CC70CC60CCA0B7D2F4908C500480864
:102F0E00C4004708C3004608C200013083160317E9
:102F1E0095070318960A00309607831603171608AE
:102F2E00803AFF0080307F02031D9F2FFF30150275
:102F3E00031CA22FA32FB32FFF3083160317950068
:102F4E0000309600003083160313C5000030C40015
:102F5E000030C3000030C200831603171608803AF3
:102F6E00FF0080307F02031DBE2F013015020318B3
:102F7E00C12FC22FD32F8316031795019601003050
:102F8E0083160313C5000030C4000030C3000030A8
:102F9E00C2008316031794018316031715088316B0
:102FAE000313C6004608831603179B001B1CE02F55
:102FBE00E12FE52F83160313C417EB2F7F308316F3
:102FCE000313C6004608C405831603171B08831691
:102FDE000313C6000310460CC7004708C50083162E
:102FEE000317140883160313C6004608C504FA2DEA
:022FFE000800C9
:10377C000F3083160317880089010F30831603134B
:10378C0085008312031385011F30831603138600F3
:10379C0088018312031388018316031389015E08C1
:1037AC00831203138900831603130F088F393038E3
:1037BC008F000F14181218158316031787150C3069
:1037CC008316031399009A01831203139817831617
:1037DC000313181398168312031318161F083F3976
:1037EC0040389F00831603131F129F12C33083129D
:1037FC0003139F05831603139F13831203131F14C4
:10380C000C3083160313B000B00B0A2C0000831687
:10381C00031307159B3092008312031397013F305B
:10382C0097051708F0390C389700073095001708E2
:10383C00CF39203897008316031387148312031390
:10384C009D011D08F0390C389D0007309B001D129E
:10385C009D168C100330920412158C1C362C372CB0
:10386C00332C8C10831603130711871087118312C6
:10387C00031387010C13831603130C170B178B17E9
:10388C008C1681131F3095008B151F3096000B1072
:10389C0008000310831203136A0D6B0D83160313B8
:1038AC00A000200883120313ED006D08031D5F2C8C
:1038BC00602C692C0030EB000030EA000030E9008D
:1038CC000030E800EA2C680883160313A00083126A
:1038DC000313690883160313A100831203136A08E8
:1038EC0083160313A200831203136B0883160313AE
:1038FC00A3001F300310A30CA20CA10CA00CFF3EC4
:10390C00031D802C2008A400240883120313EC0050
:10391C00EA17FF30E805FF30E905FF30EA05003013
:10392C00EB059630ED02ED1F9C2C9D2CBB2C6D08ED
:10393C00803A973E0318A32CA42CA52C602C0130A4
:10394C000310EB0CEA0CE90CE80CFF3E031DA62C53
:10395C00013083160313A000200883120313ED0714
:10396C00031DB92CBA2CA52CDA2C20306D02031CAB
:10397C00C02CC12CD52C602C013083160313A00055
:10398C00031083120313E80DE90DEA0DEB0D8316FA
:10399C000313A00BC62C013083120313ED026D0828
:1039AC00031DD92CDA2CC22C6C080319DE2CDF2C4D
:1039BC00EA2CE809E909EA09EB09E80A0319E90A1A
:1039CC000319EA0A0319EB0A080083120313EE0029
:1039DC00831603132708F0002808F100F201F30105
:1039EC0000300A168A159D250A168A15730883124B
:1039FC000313DB007208DA007108D9007008D800D4
:103A0C008316031327082902F0002808031C280A30
:103A1C002A02F100F201F30100300A168A159D25E5
:103A2C000A168A15730883120313A7007208A600DE
:103A3C007108A5007008A40083160313250826023C
:103A4C00F000F101031CF103F201F11BF203720807
:103A5C00F30001300A168A159D250A168A1573087B
:103A6C0083120313A3007208A2007108A10070084E
:103A7C00A0000A168A11FB200A168A15831203135A
:103A8C002308C1002208C0002108BF002008BE0086
:103A9C00831603132508831203136E02F000F10141
:103AAC00031CF103F201F11BF2037208F300013065
:103ABC000A168A159D250A168A1573088312031394
:103ACC00BD007208BC007108BB007008BA000A1275
:103ADC008A159F240A168A15831203133D08D700F2
:103AEC003C08D6003B08D5003A08D4000A168A11C7
:103AFC00D8220A168A15831203135708EB005608AE
:103B0C00EA005508E9005408E8000A168A154F2403
:103B1C000A168A1583120313690883160313A60069
:103B2C0083120313680883160313A5000800F8001A
:103B3C0078080319A22DA32DB72DF31FA62DA72DA1
:103B4C00B72D7009FA007109FB007209FC007309AA
:103B5C00FD00FA0A0319FB0A0319FC0A0319FD0AF2
:103B6C00BF2D7308FD007208FC007108FB00700883
:103B7C00FA007308720471047004031DC62DC72D5E
:103B8C00D02D0030F3000030F2000030F100003096
:103B9C00F000562E9630F4007408F900E22D013036
:103BAC00F4007408F90701300310FD0CFC0CFB0C3D
:103BBC00FA0CFF3E031DDA2DFE307D05031DE72DAB
:103BCC00E82DD52D042E0130F4007408F9070130CE
:103BDC00FA07003003180130FB07003003180130DE
:103BEC00FC07003003180130FD0701300310FD0CF9
:103BFC00FC0CFB0CFA0CFF3E031DFC2DFF307D056D
:103C0C00031D092E0A2EE92D162E0130F902013062
:103C1C00F4000310FA0DFB0DFC0DFD0DF40B0F2E33
:103C2C00FC1B192E1A2E202E0230790203181F2E7F
:103C3C00202E0B2E7918232E242E2C2EFF30FA0535
:103C4C00FF30FB057F30FC05FF30FD050310F90C40
:103C5C007908F400F501F601F70118300310F40DA2
:103C6C00F50DF60DF70DFF3E031D342E7408FA0406
:103C7C007508FB047608FC047708FD047808031922
:103C8C00482E492E4E2EF31F4C2E4D2E4E2EFD1728
:103C9C007D08F3007C08F2007B08F1007A08F00044
:103CAC0008000A168A15BE230A168A150D308316CB
:103CBC000317D200FB30D100D10B622ED20B622E37
:103CCC00831203130C1E6B2E6C2E892E8316031776
:103CDC005403031D722E732E7E2E831603135C0861
:103CEC00013883120313990083160317D401892E0C
:103CFC00831603135D08FE39831203139900831690
:103D0C000317D401D40A831603135E03031D8F2EED
:103D1C00902EEF2E831203139F18952E962EEC2EB9
:103D2C001F0C83160317D100510C0F39003A031DD9
:103D3C00A02EA12EA82E831203131F08C3390438FA
:103D4C009F00E22E831203131F0C83160317D1005E
:103D5C00510C0F39013A031DB42EB52EBC2E831213
:103D6C0003131F08C33908389F00E22E8312031374
:103D7C001F0C83160317D100510C0F39023A031D87
:103D8C00C82EC92ED02E831203131F08C3390C382A
:103D9C009F00E22E831203131F0C83160317D1000E
:103DAC00510C0F39033A031DDC2EDD2EE22EC330ED
:103DBC00831203139F05E22E0C3083160317D100D8
:103DCC00D10BE62E0000831203139F1401308900DF
:103DDC005C2E02305E06031DF42EF52EFA2E0230F8
:103DEC008312031389005C2E03305E06031DFF2E25
:103DFC00002F5C2E043083120313890083160313E7
:103E0C005F088312031388000530831603135F02C7
:103E1C00031C112F122F5C2E5F0803398316031716
:103E2C00D1005108D3005308031D1D2F1E2F802FC6
:103E3C00831603135F0883160317D10051088316EA
:103E4C000313DA0083160317CA01FF30D10051089F
:103E5C00CB000F30CC000030CD004B30CE0000300A
:103E6C00CF00831603135A080A128A158F200A16DC
:103E7C008A15831603174A08D200520883160313B7
:103E8C00D900590883160317D10002300310D10C46
:103E9C00FF3E031D4C2F5108831203139B00831606
:103EAC0003135908013983160317D100D10E83125D
:103EBC0003131D08831603175106EF39510683129D
:103ECC0003139D0083160313590883160317D1009F
:103EDC000310510C0139D200D20ED20D83120313F0
:103EEC001D08831603175206DF395206831203137B
:103EFC009D005C2E5303031D842F852FDA2F831610
:103F0C0003135F0883160317D1005108831603139C
:103F1C00DB0083160317CA01FF30D1005108CB0018
:103F2C000F30CC000030CD004B30CE000030CF0035
:103F3C00831603135B080A128A158F200A168A153A
:103F4C00831603174B0883160313D8008316031725
:103F5C004A0883160313D700580883160317D20098
:103F6C0083160313570883160317D1000310D20CC2
:103F7C00D10C0310D20CD10C5108831203139500F1
:103F8C00831603135708033983160317D100D10E78
:103F9C00831203131708831603175106CF395106E2
:103FAC008312031397005C2E02305306031DDF2F80
:103FBC00E02FEB2F831603135F0883160317D10032
:103FCC00510883160313DC005C2E03305306031DCB
:103FDC00F02FF12FFC2F831603135F0883160317A2
:103FEC00D100510883160313DD005C2E5C2E0A12DF
:0C3FFC008A111028FF3FFF3FFF3FFF3FEE
:04400E00D420FF3F7C
:00000001FF
